{
  "_format": "hh-sol-artifact-1",
  "contractName": "EdgeEsmeraldaBadge",
  "sourceName": "contracts/EdgeEsmeraldaBadge.sol",
  "abi": [
    {
      "inputs": [
        {
          "internalType": "string",
          "name": "baseURI",
          "type": "string"
        },
        {
          "internalType": "address",
          "name": "initialOwner",
          "type": "address"
        }
      ],
      "stateMutability": "nonpayable",
      "type": "constructor"
    },
    {
      "inputs": [
        {
          "internalType": "address",
          "name": "sender",
          "type": "address"
        },
        {
          "internalType": "uint256",
          "name": "balance",
          "type": "uint256"
        },
        {
          "internalType": "uint256",
          "name": "needed",
          "type": "uint256"
        },
        {
          "internalType": "uint256",
          "name": "tokenId",
          "type": "uint256"
        }
      ],
      "name": "ERC1155InsufficientBalance",
      "type": "error"
    },
    {
      "inputs": [
        {
          "internalType": "address",
          "name": "approver",
          "type": "address"
        }
      ],
      "name": "ERC1155InvalidApprover",
      "type": "error"
    },
    {
      "inputs": [
        {
          "internalType": "uint256",
          "name": "idsLength",
          "type": "uint256"
        },
        {
          "internalType": "uint256",
          "name": "valuesLength",
          "type": "uint256"
        }
      ],
      "name": "ERC1155InvalidArrayLength",
      "type": "error"
    },
    {
      "inputs": [
        {
          "internalType": "address",
          "name": "operator",
          "type": "address"
        }
      ],
      "name": "ERC1155InvalidOperator",
      "type": "error"
    },
    {
      "inputs": [
        {
          "internalType": "address",
          "name": "receiver",
          "type": "address"
        }
      ],
      "name": "ERC1155InvalidReceiver",
      "type": "error"
    },
    {
      "inputs": [
        {
          "internalType": "address",
          "name": "sender",
          "type": "address"
        }
      ],
      "name": "ERC1155InvalidSender",
      "type": "error"
    },
    {
      "inputs": [
        {
          "internalType": "address",
          "name": "operator",
          "type": "address"
        },
        {
          "internalType": "address",
          "name": "owner",
          "type": "address"
        }
      ],
      "name": "ERC1155MissingApprovalForAll",
      "type": "error"
    },
    {
      "inputs": [
        {
          "internalType": "address",
          "name": "owner",
          "type": "address"
        }
      ],
      "name": "OwnableInvalidOwner",
      "type": "error"
    },
    {
      "inputs": [
        {
          "internalType": "address",
          "name": "account",
          "type": "address"
        }
      ],
      "name": "OwnableUnauthorizedAccount",
      "type": "error"
    },
    {
      "inputs": [],
      "name": "ReentrancyGuardReentrantCall",
      "type": "error"
    },
    {
      "anonymous": false,
      "inputs": [
        {
          "indexed": true,
          "internalType": "address",
          "name": "account",
          "type": "address"
        },
        {
          "indexed": true,
          "internalType": "address",
          "name": "operator",
          "type": "address"
        },
        {
          "indexed": false,
          "internalType": "bool",
          "name": "approved",
          "type": "bool"
        }
      ],
      "name": "ApprovalForAll",
      "type": "event"
    },
    {
      "anonymous": false,
      "inputs": [
        {
          "indexed": true,
          "internalType": "address",
          "name": "recipient",
          "type": "address"
        },
        {
          "indexed": false,
          "internalType": "uint256",
          "name": "badgeNumber",
          "type": "uint256"
        },
        {
          "indexed": false,
          "internalType": "bytes32",
          "name": "nullifierHash",
          "type": "bytes32"
        }
      ],
      "name": "EdgeEsmeraldaMinted",
      "type": "event"
    },
    {
      "anonymous": false,
      "inputs": [
        {
          "indexed": true,
          "internalType": "address",
          "name": "previousOwner",
          "type": "address"
        },
        {
          "indexed": true,
          "internalType": "address",
          "name": "newOwner",
          "type": "address"
        }
      ],
      "name": "OwnershipTransferred",
      "type": "event"
    },
    {
      "anonymous": false,
      "inputs": [
        {
          "indexed": true,
          "internalType": "address",
          "name": "operator",
          "type": "address"
        },
        {
          "indexed": true,
          "internalType": "address",
          "name": "from",
          "type": "address"
        },
        {
          "indexed": true,
          "internalType": "address",
          "name": "to",
          "type": "address"
        },
        {
          "indexed": false,
          "internalType": "uint256[]",
          "name": "ids",
          "type": "uint256[]"
        },
        {
          "indexed": false,
          "internalType": "uint256[]",
          "name": "values",
          "type": "uint256[]"
        }
      ],
      "name": "TransferBatch",
      "type": "event"
    },
    {
      "anonymous": false,
      "inputs": [
        {
          "indexed": true,
          "internalType": "address",
          "name": "operator",
          "type": "address"
        },
        {
          "indexed": true,
          "internalType": "address",
          "name": "from",
          "type": "address"
        },
        {
          "indexed": true,
          "internalType": "address",
          "name": "to",
          "type": "address"
        },
        {
          "indexed": false,
          "internalType": "uint256",
          "name": "id",
          "type": "uint256"
        },
        {
          "indexed": false,
          "internalType": "uint256",
          "name": "value",
          "type": "uint256"
        }
      ],
      "name": "TransferSingle",
      "type": "event"
    },
    {
      "anonymous": false,
      "inputs": [
        {
          "indexed": false,
          "internalType": "string",
          "name": "value",
          "type": "string"
        },
        {
          "indexed": true,
          "internalType": "uint256",
          "name": "id",
          "type": "uint256"
        }
      ],
      "name": "URI",
      "type": "event"
    },
    {
      "inputs": [],
      "name": "EDGE_ESMERALDA_ID",
      "outputs": [
        {
          "internalType": "uint256",
          "name": "",
          "type": "uint256"
        }
      ],
      "stateMutability": "view",
      "type": "function"
    },
    {
      "inputs": [],
      "name": "MAX_SUPPLY",
      "outputs": [
        {
          "internalType": "uint256",
          "name": "",
          "type": "uint256"
        }
      ],
      "stateMutability": "view",
      "type": "function"
    },
    {
      "inputs": [
        {
          "internalType": "address",
          "name": "recipient",
          "type": "address"
        }
      ],
      "name": "adminMint",
      "outputs": [],
      "stateMutability": "nonpayable",
      "type": "function"
    },
    {
      "inputs": [
        {
          "internalType": "address",
          "name": "account",
          "type": "address"
        },
        {
          "internalType": "uint256",
          "name": "id",
          "type": "uint256"
        }
      ],
      "name": "balanceOf",
      "outputs": [
        {
          "internalType": "uint256",
          "name": "",
          "type": "uint256"
        }
      ],
      "stateMutability": "view",
      "type": "function"
    },
    {
      "inputs": [
        {
          "internalType": "address[]",
          "name": "accounts",
          "type": "address[]"
        },
        {
          "internalType": "uint256[]",
          "name": "ids",
          "type": "uint256[]"
        }
      ],
      "name": "balanceOfBatch",
      "outputs": [
        {
          "internalType": "uint256[]",
          "name": "",
          "type": "uint256[]"
        }
      ],
      "stateMutability": "view",
      "type": "function"
    },
    {
      "inputs": [
        {
          "internalType": "address",
          "name": "user",
          "type": "address"
        }
      ],
      "name": "canMint",
      "outputs": [
        {
          "internalType": "bool",
          "name": "",
          "type": "bool"
        }
      ],
      "stateMutability": "view",
      "type": "function"
    },
    {
      "inputs": [],
      "name": "currentSupply",
      "outputs": [
        {
          "internalType": "uint256",
          "name": "",
          "type": "uint256"
        }
      ],
      "stateMutability": "view",
      "type": "function"
    },
    {
      "inputs": [],
      "name": "getBadgeInfo",
      "outputs": [
        {
          "internalType": "uint256",
          "name": "current",
          "type": "uint256"
        },
        {
          "internalType": "uint256",
          "name": "max",
          "type": "uint256"
        },
        {
          "internalType": "uint256",
          "name": "remaining",
          "type": "uint256"
        }
      ],
      "stateMutability": "view",
      "type": "function"
    },
    {
      "inputs": [
        {
          "internalType": "address",
          "name": "",
          "type": "address"
        }
      ],
      "name": "hasMinted",
      "outputs": [
        {
          "internalType": "bool",
          "name": "",
          "type": "bool"
        }
      ],
      "stateMutability": "view",
      "type": "function"
    },
    {
      "inputs": [
        {
          "internalType": "address",
          "name": "account",
          "type": "address"
        },
        {
          "internalType": "address",
          "name": "operator",
          "type": "address"
        }
      ],
      "name": "isApprovedForAll",
      "outputs": [
        {
          "internalType": "bool",
          "name": "",
          "type": "bool"
        }
      ],
      "stateMutability": "view",
      "type": "function"
    },
    {
      "inputs": [
        {
          "internalType": "address",
          "name": "recipient",
          "type": "address"
        },
        {
          "internalType": "bytes32",
          "name": "nullifierHash",
          "type": "bytes32"
        }
      ],
      "name": "mintEdgeEsmeralda",
      "outputs": [],
      "stateMutability": "nonpayable",
      "type": "function"
    },
    {
      "inputs": [],
      "name": "owner",
      "outputs": [
        {
          "internalType": "address",
          "name": "",
          "type": "address"
        }
      ],
      "stateMutability": "view",
      "type": "function"
    },
    {
      "inputs": [],
      "name": "renounceOwnership",
      "outputs": [],
      "stateMutability": "nonpayable",
      "type": "function"
    },
    {
      "inputs": [
        {
          "internalType": "address",
          "name": "from",
          "type": "address"
        },
        {
          "internalType": "address",
          "name": "to",
          "type": "address"
        },
        {
          "internalType": "uint256[]",
          "name": "ids",
          "type": "uint256[]"
        },
        {
          "internalType": "uint256[]",
          "name": "amounts",
          "type": "uint256[]"
        },
        {
          "internalType": "bytes",
          "name": "data",
          "type": "bytes"
        }
      ],
      "name": "safeBatchTransferFrom",
      "outputs": [],
      "stateMutability": "nonpayable",
      "type": "function"
    },
    {
      "inputs": [
        {
          "internalType": "address",
          "name": "from",
          "type": "address"
        },
        {
          "internalType": "address",
          "name": "to",
          "type": "address"
        },
        {
          "internalType": "uint256",
          "name": "id",
          "type": "uint256"
        },
        {
          "internalType": "uint256",
          "name": "amount",
          "type": "uint256"
        },
        {
          "internalType": "bytes",
          "name": "data",
          "type": "bytes"
        }
      ],
      "name": "safeTransferFrom",
      "outputs": [],
      "stateMutability": "nonpayable",
      "type": "function"
    },
    {
      "inputs": [
        {
          "internalType": "address",
          "name": "operator",
          "type": "address"
        },
        {
          "internalType": "bool",
          "name": "approved",
          "type": "bool"
        }
      ],
      "name": "setApprovalForAll",
      "outputs": [],
      "stateMutability": "nonpayable",
      "type": "function"
    },
    {
      "inputs": [
        {
          "internalType": "bytes4",
          "name": "interfaceId",
          "type": "bytes4"
        }
      ],
      "name": "supportsInterface",
      "outputs": [
        {
          "internalType": "bool",
          "name": "",
          "type": "bool"
        }
      ],
      "stateMutability": "view",
      "type": "function"
    },
    {
      "inputs": [
        {
          "internalType": "address",
          "name": "newOwner",
          "type": "address"
        }
      ],
      "name": "transferOwnership",
      "outputs": [],
      "stateMutability": "nonpayable",
      "type": "function"
    },
    {
      "inputs": [
        {
          "internalType": "uint256",
          "name": "",
          "type": "uint256"
        }
      ],
      "name": "uri",
      "outputs": [
        {
          "internalType": "string",
          "name": "",
          "type": "string"
        }
      ],
      "stateMutability": "view",
      "type": "function"
    },
    {
      "inputs": [
        {
          "internalType": "bytes32",
          "name": "",
          "type": "bytes32"
        }
      ],
      "name": "usedNullifierHashes",
      "outputs": [
        {
          "internalType": "bool",
          "name": "",
          "type": "bool"
        }
      ],
      "stateMutability": "view",
      "type": "function"
    }
  ],
  "bytecode": "0x6080604052600060055534801561001557600080fd5b50604051611b6e380380611b6e83398101604081905261003491610118565b808261003f81610084565b506001600160a01b03811661006e57604051631e4fbdf760e01b81526000600482015260240160405180910390fd5b61007781610094565b505060016004555061033c565b6002610090828261027e565b5050565b600380546001600160a01b038381166001600160a01b0319831681179093556040519116919082907f8be0079c531659141344cd1fd0a4f28419497f9722a3daafe3b4186f6b6457e090600090a35050565b634e487b7160e01b600052604160045260246000fd5b80516001600160a01b038116811461011357600080fd5b919050565b6000806040838503121561012b57600080fd5b82516001600160401b0381111561014157600080fd5b8301601f8101851361015257600080fd5b80516001600160401b0381111561016b5761016b6100e6565b604051601f8201601f19908116603f011681016001600160401b0381118282101715610199576101996100e6565b6040528181528282016020018710156101b157600080fd5b60005b828110156101d0576020818501810151838301820152016101b4565b506000602083830101528094505050506101ec602084016100fc565b90509250929050565b600181811c9082168061020957607f821691505b60208210810361022957634e487b7160e01b600052602260045260246000fd5b50919050565b601f82111561027957806000526020600020601f840160051c810160208510156102565750805b601f840160051c820191505b818110156102765760008155600101610262565b50505b505050565b81516001600160401b03811115610297576102976100e6565b6102ab816102a584546101f5565b8461022f565b6020601f8211600181146102df57600083156102c75750848201515b600019600385901b1c1916600184901b178455610276565b600084815260208120601f198516915b8281101561030f57878501518255602094850194600190920191016102ef565b508482101561032d5786840151600019600387901b60f8161c191681555b50505050600190811b01905550565b6118238061034b6000396000f3fe608060405234801561001057600080fd5b506004361061012b5760003560e01c80638da5cb5b116100ad578063c2ba474411610071578063c2ba47441461028a578063ceed88061461029d578063e985e9c5146102c0578063f242432a146102d3578063f2fde38b146102e657600080fd5b80638da5cb5b1461021e578063957fd058146102395780639769dc0e14610241578063a22cb46514610254578063b6708e361461026757600080fd5b806338e21cce116100f457806338e21cce146101b75780634095da4e146101da5780634e1273f4146101ed578063715018a61461020d578063771282f61461021557600080fd5b8062fdd58e1461013057806301ffc9a7146101565780630e89341c146101795780632eb2c2d61461019957806332cb6b0c146101ae575b600080fd5b61014361013e366004611149565b6102f9565b6040519081526020015b60405180910390f35b610169610164366004611189565b610321565b604051901515815260200161014d565b61018c6101873660046111ad565b610371565b60405161014d919061120c565b6101ac6101a7366004611367565b610405565b005b6101436107d081565b6101696101c536600461141d565b60066020526000908152604090205460ff1681565b6101ac6101e8366004611149565b610449565b6102006101fb366004611438565b610645565b60405161014d919061153d565b6101ac610712565b61014360055481565b6003546040516001600160a01b03909116815260200161014d565b610143600181565b6101ac61024f36600461141d565b610726565b6101ac610262366004611550565b61086c565b6101696102753660046111ad565b60076020526000908152604090205460ff1681565b61016961029836600461141d565b610877565b6102a56108a7565b6040805193845260208401929092529082015260600161014d565b6101696102ce36600461158c565b6108cd565b6101ac6102e13660046115bf565b6108fb565b6101ac6102f436600461141d565b61092f565b6000818152602081815260408083206001600160a01b03861684529091529020545b92915050565b60006001600160e01b03198216636cdb3d1360e11b148061035257506001600160e01b031982166303a24d0760e21b145b8061031b57506301ffc9a760e01b6001600160e01b031983161461031b565b60606002805461038090611618565b80601f01602080910402602001604051908101604052809291908181526020018280546103ac90611618565b80156103f95780601f106103ce576101008083540402835291602001916103f9565b820191906000526020600020905b8154815290600101906020018083116103dc57829003601f168201915b50505050509050919050565b6001600160a01b038516156104355760405162461bcd60e51b815260040161042c90611652565b60405180910390fd5b610442858585858561096d565b5050505050565b6104516109d4565b6107d0600554106104995760405162461bcd60e51b815260206004820152601260248201527113585e081cdd5c1c1b1e481c995858da195960721b604482015260640161042c565b6001600160a01b03821660009081526006602052604090205460ff16156104f35760405162461bcd60e51b815260206004820152600e60248201526d105b1c9958591e481b5a5b9d195960921b604482015260640161042c565b60008181526007602052604090205460ff16156105435760405162461bcd60e51b815260206004820152600e60248201526d139d5b1b1a599a595c881d5cd95960921b604482015260640161042c565b806105845760405162461bcd60e51b815260206004820152601160248201527024b73b30b634b210373ab63634b334b2b960791b604482015260640161042c565b6001600160a01b03821660009081526006602090815260408083208054600160ff1991821681179092558585526007909352908320805490921617905560058054916105cf836116aa565b91905055506105f082600180604051806020016040528060008152506109fe565b60055460408051918252602082018390526001600160a01b038416917f6cd278c54a606d86ab5f55129764f63b1d91800e4e630460c58d03d8260d52ad910160405180910390a26106416001600455565b5050565b606081518351146106765781518351604051635b05999160e01b81526004810192909252602482015260440161042c565b6000835167ffffffffffffffff8111156106925761069261121f565b6040519080825280602002602001820160405280156106bb578160200160208202803683370190505b50905060005b845181101561070a576020808202860101516106e5906020808402870101516102f9565b8282815181106106f7576106f76116c3565b60209081029190910101526001016106c1565b509392505050565b61071a610a5b565b6107246000610a88565b565b61072e610a5b565b6107d0600554106107765760405162461bcd60e51b815260206004820152601260248201527113585e081cdd5c1c1b1e481c995858da195960721b604482015260640161042c565b6001600160a01b03811660009081526006602052604090205460ff16156107d05760405162461bcd60e51b815260206004820152600e60248201526d105b1c9958591e481b5a5b9d195960921b604482015260640161042c565b6001600160a01b0381166000908152600660205260408120805460ff191660011790556005805491610801836116aa565b919050555061082281600180604051806020016040528060008152506109fe565b60055460408051918252600060208301526001600160a01b038316917f6cd278c54a606d86ab5f55129764f63b1d91800e4e630460c58d03d8260d52ad910160405180910390a250565b610641338383610ada565b60006107d060055410801561031b5750506001600160a01b031660009081526006602052604090205460ff161590565b60008060006005546107d06005546107d06108c291906116d9565b925092509250909192565b6001600160a01b03918216600090815260016020908152604080832093909416825291909152205460ff1690565b6001600160a01b038516156109225760405162461bcd60e51b815260040161042c90611652565b6104428585858585610b70565b610937610a5b565b6001600160a01b03811661096157604051631e4fbdf760e01b81526000600482015260240161042c565b61096a81610a88565b50565b336001600160a01b038616811480159061098e575061098c86826108cd565b155b156109bf5760405163711bec9160e11b81526001600160a01b0380831660048301528716602482015260440161042c565b6109cc8686868686610bcf565b505050505050565b6002600454036109f757604051633ee5aeb560e01b815260040160405180910390fd5b6002600455565b6001600160a01b038416610a2857604051632bfa23e760e11b81526000600482015260240161042c565b604080516001808252602082018690528183019081526060820185905260808201909252906109cc600087848487610c2b565b6003546001600160a01b031633146107245760405163118cdaa760e01b815233600482015260240161042c565b600380546001600160a01b038381166001600160a01b0319831681179093556040519116919082907f8be0079c531659141344cd1fd0a4f28419497f9722a3daafe3b4186f6b6457e090600090a35050565b6001600160a01b038216610b035760405162ced3e160e81b81526000600482015260240161042c565b6001600160a01b03838116600081815260016020908152604080832094871680845294825291829020805460ff191686151590811790915591519182527f17307eab39ab6107e8899845ad3d59bd9653f200f220920489ca2b5937696c31910160405180910390a3505050565b336001600160a01b0386168114801590610b915750610b8f86826108cd565b155b15610bc25760405163711bec9160e11b81526001600160a01b0380831660048301528716602482015260440161042c565b6109cc8686868686610c7e565b6001600160a01b038416610bf957604051632bfa23e760e11b81526000600482015260240161042c565b6001600160a01b038516610c2257604051626a0d4560e21b81526000600482015260240161042c565b61044285858585855b610c3785858585610d0c565b6001600160a01b038416156104425782513390600103610c705760208481015190840151610c69838989858589610f20565b50506109cc565b6109cc818787878787611044565b6001600160a01b038416610ca857604051632bfa23e760e11b81526000600482015260240161042c565b6001600160a01b038516610cd157604051626a0d4560e21b81526000600482015260240161042c565b60408051600180825260208201869052818301908152606082018590526080820190925290610d038787848487610c2b565b50505050505050565b8051825114610d3b5781518151604051635b05999160e01b81526004810192909252602482015260440161042c565b3360005b8351811015610e41576020818102858101820151908501909101516001600160a01b03881615610df2576000828152602081815260408083206001600160a01b038c16845290915290205481811015610dcb576040516303dee4c560e01b81526001600160a01b038a16600482015260248101829052604481018390526064810184905260840161042c565b6000838152602081815260408083206001600160a01b038d16845290915290209082900390555b6001600160a01b03871615610e37576000828152602081815260408083206001600160a01b038b16845290915281208054839290610e319084906116ec565b90915550505b5050600101610d3f565b508251600103610ec25760208301516000906020840151909150856001600160a01b0316876001600160a01b0316846001600160a01b03167fc3d58168c5ae7397731d063d5bbf3d657854427343f4c083240f7aacaa2d0f628585604051610eb3929190918252602082015260400190565b60405180910390a45050610442565b836001600160a01b0316856001600160a01b0316826001600160a01b03167f4a39dc06d4c0dbc64b70af90fd698a233a518aa5d07e595d983b8c0526c8f7fb8686604051610f119291906116ff565b60405180910390a45050505050565b6001600160a01b0384163b156109cc5760405163f23a6e6160e01b81526001600160a01b0385169063f23a6e6190610f64908990899088908890889060040161172d565b6020604051808303816000875af1925050508015610f9f575060408051601f3d908101601f19168201909252610f9c91810190611772565b60015b611008573d808015610fcd576040519150601f19603f3d011682016040523d82523d6000602084013e610fd2565b606091505b50805160000361100057604051632bfa23e760e11b81526001600160a01b038616600482015260240161042c565b805181602001fd5b6001600160e01b0319811663f23a6e6160e01b14610d0357604051632bfa23e760e11b81526001600160a01b038616600482015260240161042c565b6001600160a01b0384163b156109cc5760405163bc197c8160e01b81526001600160a01b0385169063bc197c8190611088908990899088908890889060040161178f565b6020604051808303816000875af19250505080156110c3575060408051601f3d908101601f191682019092526110c091810190611772565b60015b6110f1573d808015610fcd576040519150601f19603f3d011682016040523d82523d6000602084013e610fd2565b6001600160e01b0319811663bc197c8160e01b14610d0357604051632bfa23e760e11b81526001600160a01b038616600482015260240161042c565b80356001600160a01b038116811461114457600080fd5b919050565b6000806040838503121561115c57600080fd5b6111658361112d565b946020939093013593505050565b6001600160e01b03198116811461096a57600080fd5b60006020828403121561119b57600080fd5b81356111a681611173565b9392505050565b6000602082840312156111bf57600080fd5b5035919050565b6000815180845260005b818110156111ec576020818501810151868301820152016111d0565b506000602082860101526020601f19601f83011685010191505092915050565b6020815260006111a660208301846111c6565b634e487b7160e01b600052604160045260246000fd5b604051601f8201601f1916810167ffffffffffffffff8111828210171561125e5761125e61121f565b604052919050565b600067ffffffffffffffff8211156112805761128061121f565b5060051b60200190565b600082601f83011261129b57600080fd5b81356112ae6112a982611266565b611235565b8082825260208201915060208360051b8601019250858311156112d057600080fd5b602085015b838110156112ed5780358352602092830192016112d5565b5095945050505050565b600082601f83011261130857600080fd5b813567ffffffffffffffff8111156113225761132261121f565b611335601f8201601f1916602001611235565b81815284602083860101111561134a57600080fd5b816020850160208301376000918101602001919091529392505050565b600080600080600060a0868803121561137f57600080fd5b6113888661112d565b94506113966020870161112d565b9350604086013567ffffffffffffffff8111156113b257600080fd5b6113be8882890161128a565b935050606086013567ffffffffffffffff8111156113db57600080fd5b6113e78882890161128a565b925050608086013567ffffffffffffffff81111561140457600080fd5b611410888289016112f7565b9150509295509295909350565b60006020828403121561142f57600080fd5b6111a68261112d565b6000806040838503121561144b57600080fd5b823567ffffffffffffffff81111561146257600080fd5b8301601f8101851361147357600080fd5b80356114816112a982611266565b8082825260208201915060208360051b8501019250878311156114a357600080fd5b6020840193505b828410156114cc576114bb8461112d565b8252602093840193909101906114aa565b9450505050602083013567ffffffffffffffff8111156114eb57600080fd5b6114f78582860161128a565b9150509250929050565b600081518084526020840193506020830160005b82811015611533578151865260209586019590910190600101611515565b5093949350505050565b6020815260006111a66020830184611501565b6000806040838503121561156357600080fd5b61156c8361112d565b91506020830135801515811461158157600080fd5b809150509250929050565b6000806040838503121561159f57600080fd5b6115a88361112d565b91506115b66020840161112d565b90509250929050565b600080600080600060a086880312156115d757600080fd5b6115e08661112d565b94506115ee6020870161112d565b93506040860135925060608601359150608086013567ffffffffffffffff81111561140457600080fd5b600181811c9082168061162c57607f821691505b60208210810361164c57634e487b7160e01b600052602260045260246000fd5b50919050565b60208082526022908201527f4564676545736d6572616c6461206261646765732061726520736f756c626f756040820152611b9960f21b606082015260800190565b634e487b7160e01b600052601160045260246000fd5b6000600182016116bc576116bc611694565b5060010190565b634e487b7160e01b600052603260045260246000fd5b8181038181111561031b5761031b611694565b8082018082111561031b5761031b611694565b6040815260006117126040830185611501565b82810360208401526117248185611501565b95945050505050565b6001600160a01b03868116825285166020820152604081018490526060810183905260a060808201819052600090611767908301846111c6565b979650505050505050565b60006020828403121561178457600080fd5b81516111a681611173565b6001600160a01b0386811682528516602082015260a0604082018190526000906117bb90830186611501565b82810360608401526117cd8186611501565b905082810360808401526117e181856111c6565b9897505050505050505056fea2646970667358221220433391b5d1d12eb756a210fe84c2111f677bdf2098758fba6f0de9d0880fa06764736f6c634300081c0033",
  "linkReferences": {},
  "deployedLinkReferences": {}
}